:400000000080002011000000E5000000E500000008B5044B1A6803F53F5302331A6000F07BF800BFFA46004010B5054C237833B9044B13B10448AFF300800123237010BD3A
:40004000C081FF1F00000000E03B000008B5064B1BB106480649AFF300800648036813B1054B03B1984708BD00000000E03B0000C481FF1F0881FF1F00000000F0B58FB03F
:4000800062B600F097FC00F0BBFA00F01BFD0024124E134D27461CE0204600F07BFA00F09DFC00F0A3FC80B200F0C8FC00F0D8FF02460B4601A8314601F04AFB01A800F093
:4000C0001BFD284600F018FDFA2000F0FBF90134E4B2FF2CE0D13C46FBE700BFE83B0000F03B0000FEE700BF08B5094B1B681844084A821AB2F5805F02DC054A106005E0D5
:4001000001F0E8FA0C2303604FF0FF33184608BD0C81FF1F0082FF1F80B5104F104E002415E031687368B568224604E051F8040B43F8040B0432AA42F8D1F168224602E063
:4001400043F8044B04328A42FAD11036013F002FE7D101F0C5FAFFF791FFFEE701000000B83D000010B5124A124B1A6008331A6842F400721A6000230F48104C104908E0BC
:40018000032B02D854F8232000E0024641F8232001332F2BF4D90B4B1A780B4B1A70084A0A4B1A6000F0F4F80022094B1A6010BD0004FA050CED00E0E50000000000000066
:4001C0000080FF1FBC7600400481FF1F08ED00E00081FF1FFEE700BFF0B400231F4611E050F82760F2B226F0FF0608E001EB430511F813406D78A5550133013AD2B2002A15
:40020000F4D10137102FEBD9F0BC70470C4B1B78DBB203F007010B4A11701B09013213703022094B1A70102203F65B131A702023064A1370583213704422054B1A707047CC
:40024000CF0100496E5800403D510040005B00407658004008B50A46002101F070FA08BD08B501F063FA08BDF8B50025304B1D80502202331A70192402331C801822023332
:400280001A702C482C490422FFF7EAFF02222B4B1A7008234FF040221370032102F500721170274A1178C9B2264A1170A2F27F42138041F25122244B1A80244F4FF4F0762C
:4002C0000AE03B7803F0010343EA450505F00305304600F0E1F8013C0CB1032DF1D114B90320FFF777FF1A4B4FF480721A8007221A70002217490A704820023108701A70EF
:400300000222033B1A7004220A331A7003F297331A7842F003021A70013B1A7842F001021A70013B1A7842F080021A70F8BD00BF8040004000410040340300480043004042
:4003400008010049A146004020420040254200400440004006400040012807D8044A52F820301044017A1A780A431A70704700BFF43B0000012808D8044A52F8203010449F
:40038000017A1A7822EA01021A707047F43B000038B572B6304B1A7842F004021A7000242E4D09E004EB44035B002B4418689988FFF750FF0134E4B2072CF3D90024284DFC
:4003C0000AE004EB84035B002B44186859681A89FFF746FF0134E4B2002CF2D04FF090402049FFF7F9FE0A221F4B1A7003F577438033197841F0020119701033197841F0BE
:4004000002011970194C237843F040032370184B197841F01001197016481749FFF720FF164817490822FFF71BFF164B1A7842F008021A70144D61232B70FFF715FF8123B6
:400440002B700122114B1A70FFF7E0FE104821460E22FFF705FF38BDE8460040003C0000303C00004400004883580040A0430040C2430040C0510040200300483251004082
:400480002C030048224300400048004004000840B0430040000000000230800800F0058000BF013800467FF4FCAF7047EFF3108072B6704780F31088704700BFAFF30080E3
:4004C00001BE704738B50446084D04E02868FFF7E3FFA4F50044B4F5004FF7D8034B586800FB04F0FFF7D8FF38BD00BF1081FF1F08B5034B1B7A03FB00F0FFF7CDFF08BDC8
:400500001081FF1F70B505460E46074B1C681F2802D90020FFF7D4FF05F01F05103554F8250044F8256070BD08ED00E038B505460C46072902D90020FFF7C2FF1F2D02D942
:400540000020FFF7BDFF05F01F0000F1604000F564406401E4B2047038BD00BF054B1A7842F008021A7010331A7842F008021A70704700BFA8430040054B1A7802F0FD0291
:400580001A701A7800F0020002431A70704700BF2C580040014B1870704700BF835B0040054B1B78C3F3810303F1924393F83E21D2B2024B1A7070472C5800400B46004085
:4005C00008B5064B1A7802F0F3021A701A7800F00C0002431A70FFF7E3FF08BD2C58004010B50024054B1C7001331C700420FFF7E7FF2046FFF7C0FF10BD00BF2C5800403C
:4006000008B5074B1B7823B9FFF7EAFF0122044B1A70FFF7A3FF6420FFF7BCFF08BD00BFDC81FF1F38B59DF81040012C49D10138092826D8DFE800F00525250525250D159D
:40064000251D0F2B02D9214800781BE02048007818E00F2B02D91F48007813E01E48007810E00F2B02D91D4800780BE01C48007808E00F2B02D91B48007803E01A4800786C
:4006800000E0002040B201EB401101FB02F2D20B90B20D2B0AD8C3F10E01084180B2134A02EB8402013302F8023C05E00F4B03EB84030F2203F8022C013C0C4B23F8240087
:4006C00038BD0020FFF7FCFE38BD00BF180100491C010049190100491D0100491A0100491E0100491B0100491F010049E081FF1FF8B50746FFF7DAFE06460D4D2B7843F052
:4007000003032B700B4C237843F0030323700A4B1F700320FFF7ECFE2B7803F0FC032B70237803F0FC0323703046FFF7C3FEF8BDF8460040F94600409258004038B500220B
:40074000304B1A7101285CD138222F4B1A70042202331A70062201331A70002401331C7001331C703F2201331A7002331C7001331C7001331C7001250A331D70502203F596
:4007800027631A700A2201331A702C2201331A7001331C70442203331A70482201331A7001331D7002331D70112201331A70192201331A70972201331A705220FFF798FF3E
:4007C0005822124B1A7001331C700223104A1370013213700F4B1C7001331C70204600F0ADF943F233320C4B1A600820294600F0C9F92520294600F04FFA1D200749FFF75A
:4008000081FE38BDE081FF1F004E0040945800409A5800409C580040F881FF1F650A0000F0B583B0294D01272F70294E00247471102000F095F9102000F01CFA1D200721C1
:40084000FFF774FE0422234B1A7001331C7007331C7003F269231A7842F018021A70A3F51D731C7003F2F5231C7001331C700A22A3F209331A7001331C7002331C705B22F1
:4008800005331A705E2201331A7004331C701422A3F68C231A700097022048F6F0514FF400421023FFF7BEFE2B7806EB830313F8022C094B1A702B78013B36F82320074BF8
:4008C0001A802878FFF73AFF03B0F0BD2081FF1FE081FF1F965800400E4E00400C4E004070B5FFF7E3FD06462B4B1B782B4B1A7842F001021A701A7842F010021A701033D3
:400900001A7842F001021A701A7842F010021A70234D2B7843F002032B70224C237843F002032370204B1A7842F003021A700320FFF7DEFD2B7803F0FD032B70237803F0DB
:40094000FD032370194B1A7842F006021A707A220B331A70A3F5A753013B1A7842F001021A7010331A7842F001021A700F3B1A7842F001021A7010331A7842F001021A70E4
:400980004FF000530A4A1360A2F5C07213603046FFF790FD70BD00BF2081FF1FAA430040F8460040F9460040915800407758004080E200E008B5084B9B794BB9064BDB798D
:4009C00013F0FF0F01D1FFF72BFF0122024B9A71FFF786FF08BD00BFE081FF1F024B1A7842F001021A707047004E00400E4B1B7803F00303012B03D80C4B188880B209E01A
:400A00000A4A12780A49087842EA0020032B01D1084B1B78084B1B7913F0FF0F02D00022054B5A7100B27047144E0040104E0040114E0040124E0040E081FF1F10B5074B4E
:400A40001B68C01A00F0A2FC0446054B186800F09DFC0146204600F0A1FD10BDF481FF1FF881FF1F704700BF7222074B1A702022013B1A700622613B1A70472210331A7044
:400A8000002253331A7070478A65004010B5FFF70DFD04460A4B1A7842F020021A70013B1A7842F010021A7002331A7842F010021A7000F063F92046FFF7FCFC10BD00BFED
:400AC0009A65004008B5054B1B7823B9FFF7CCFF0122024B1A70FFF7D9FF08BDE881FF1F034A137813F0040FFBD1024B187070476B6500404B65004038B50546064B1B7804
:400B00002BB938BDFFF7ECFF0134A4B200E00024285D0028F6D138BDE881FF1F10B5002404E02046FFF726FC0134E4B2012CF8D9FF22014B1A7010BD2181FF1F10B50446D5
:400B4000FFF7ECFF2046FFF707FC014B1C7010BD2181FF1F014B188880B2704780400040034B1A7800F0F80002431A70704700BF82400040024B187800F00700704700BFA2
:400B80008240004070B504460E46FFF7F3FF0546FFF7E0FF0346844258D02D4A127802F0010195B900B184B93BB92A4B1C8002331A7802F0BF021A7070BD274B1A7842F094
:400BC00040021A70023B1C8070BD29B300222348027001250F30057004300270204A107800F07F0010707A32127812F0080F00D094B91C4A13800722184B1A701A46137881
:400C000013F0010FFBD1124B1A7802F0FE021A700022A3F2A1331A700D4B1B7813F0010F0DD0104B1C800EB1032200E001220B4B1A701A46137813F0010FFBD170BD054B75
:400C40001C8003F222331A781143197070BD00BFA24300408040004082400040014000400840004002400040014B188880B2704700410040034B1A7800F0F80002431A7094
:400C8000704700BF02410040024B187800F00700704700BF0241004070B504460E46FFF7F3FF0546FFF7E0FF0346844258D02D4A127802F0010195B900B184B93BB92A4BD2
:400CC0001C8002331A7802F0BF021A7070BD274B1A7842F040021A70023B1C8070BD29B300222348027001251330057004380270204A107800F07F001070FA32127812F01F
:400D0000080F00D094B91C4A13800722184B1A701A46137813F0010FFBD1124B1A7802F0FE021A700022A3F568731A700D4B1B7813F0010F0DD0104B1C800EB1032200E086
:400D400001220B4B1A701A46137813F0010FFBD170BD054B1C8003F2A1231A781143197070BD00BFA14300400041004002410040014000400840004002400040054B1A78E4
:400D800042F002021A7010331A7842F002021A70704700BFA243004081F0004102E000BF83F0004330B54FEA41044FEA430594EA050F08BF90EA020F1FBF54EA000C55EA0B
:400DC000020C7FEA645C7FEA655C00F0E2804FEA5454D4EB5555B8BF6D420CDD2C4480EA020281EA030382EA000083EA010180EA020281EA0303362D88BF30BD11F0004FF7
:400E00004FEA01314FF4801C4CEA113102D0404261EB410113F0004F4FEA03334CEA133302D0524263EB430394EA050F00F0A780A4F10104D5F1200E0DDB02FA0EFC22FA96
:400E400005F2801841F1000103FA0EF2801843FA05F359410EE0A5F120050EF1200E012A03FA0EFC28BF4CF0020C43FA05F3C01851EBE37101F0004507D54FF0000EDCF14A
:400E8000000C7EEB00006EEB0101B1F5801F1BD3B1F5001F0CD349085FEA30004FEA3C0C04F101044FEA445212F5800F80F09A80BCF1004F08BF5FEA500C50F1000041EB82
:400EC000045141EA050130BD5FEA4C0C404141EB010111F4801FA4F10104E9D191F0000F04BF01460020B1FA81F308BF2033A3F10B03B3F120020CDA0C3208DD02F1140CC0
:400F0000C2F10C0201FA0CF021FA02F10CE002F11402D8BFC2F1200C01FA02F120FA0CFCDCBF41EA0C019040E41AA2BF01EB0451294330BD6FEA04041F3C1CDA0C340EDCF8
:400F400004F11404C4F1200220FA04F001FA02F340EA030021FA04F345EA030130BDC4F10C04C4F1200220FA02F001FA04F340EA0300294630BD21FA04F0294630BD94F01E
:400F8000000F83F4801306BF81F480110134013D4EE77FEA645C18BF7FEA655C29D094EA050F08BF90EA020F05D054EA000C04BF1946104630BD91EA030F1EBF002100206F
:400FC00030BD5FEA545C05D14000494128BF41F0004130BD14F580043CBF01F5801130BD01F0004545F0FE4141F470014FF0000030BD7FEA645C1ABF194610467FEA655CCC
:401000001CBF0B46024650EA013406BF52EA033591EA030F41F4002130BD00BF90F0000F04BF0021704730B54FF4806404F132044FF000054FF0000150E700BF90F0000F9B
:4010400004BF0021704730B54FF4806404F1320410F0004548BF40424FF000013EE700BF42004FEAE2014FEA31014FEA02701FBF12F07F4393F07F4F81F06051704792F0EA
:40108000000F14BF93F07F4F704730B54FF4607401F0004521F0004120E700BF50EA010208BF704730B54FF000050AE050EA010208BF704730B511F0004502D5404261EBA3
:4010C00041014FF4806404F132045FEA915C3FF4DCAE4FF003025FEADC0C18BF03325FEADC0C18BF033202EBDC02C2F1200300FA03FC20FA02F001FA03FE40EA0E0021FAB6
:4011000002F11444C1E600BF4FF0FF3C06E000BF4FF0010C02E000BF4FF0010C4DF804CD4FEA410C7FEA6C5C4FEA430C18BF7FEA6C5C1BD001B050EA410C0CBF52EA430CD0
:4011400091EA030F02BF90EA020F0020704710F1000F91EA030F58BF994208BF90422CBFD8176FEAE37040F0010070474FEA410C7FEA6C5C02D150EA013C07D14FEA430CC8
:401180007FEA6C5CD6D152EA033CD3D05DF8040B704700BF8446104662468C461946634600E000BF01B5FFF7B7FF002848BF10F1000F01BD4DF808EDFFF7F4FF0CBF0120B0
:4011C00000205DF808FB00BF4DF808EDFFF7EAFF34BF012000205DF808FB00BF4DF808EDFFF7E0FF94BF012000205DF808FB00BF4DF808EDFFF7CEFF94BF012000205DF8B4
:4012000008FB00BF4DF808EDFFF7C4FF34BF012000205DF808FB00BF80F0004002E000BF81F0004142001FBF5FEA410392EA030F7FEA226C7FEA236C6AD04FEA1262D2EBDD
:401240001363C1BFD218414048404140B8BF5B42192B88BF704710F0004F40F4000020F07F4018BF404211F0004F41F4000121F07F4118BF494292EA030F3FD0A2F1010217
:4012800041FA03FC10EB0C00C3F1200301FA03F100F0004302D5494260EB4000B0F5000F13D3B0F1807F06D340084FEA310102F10102FE2A51D2B1F1004F40EBC25008BF0B
:4012C00020F0010040EA03007047490040EB000010F4000FA2F10102EDD1B0FA80FCACF1080CB2EB0C0200FA0CF0AABF00EBC25052421843BCBFD0401843704792F0000F23
:4013000081F4000106BF80F400000132013BB5E74FEA41037FEA226C18BF7FEA236C21D092EA030F04D092F0000F08BF0846704790EA010F1CBF0020704712F07F4F04D11F
:40134000400028BF40F00040704712F100723CBF00F50000704700F0004343F0FE4040F4000070477FEA226216BF08467FEA23630146420206BF5FEA412390EA010F40F4BA
:40138000800070474FF0000304E000BF10F0004348BF40425FEA000C08BF704743F0964301464FF000001CE050EA010208BF70474FF000030AE000BF50EA010208BF704783
:4013C00011F0004302D5404261EB41015FEA010C02BF84460146002043F0B64308BFA3F18053A3F50003BCFA8CF2083AA3EBC25310DB01FA02FC634400FA02FCC2F1200214
:40140000BCF1004F20FA02F243EB020008BF20F00100704702F1200201FA02FCC2F1200250EA4C0021FA02F243EB020008BF20EADC7070474FF0FF0C1CEAD0521EBF1CEA12
:40144000D15392EA0C0F93EA0C0F6FD01A4480EA010C400218BF5FEA41211ED04FF0006343EA501043EA5111A0FB01310CF00040B1F5000F3EBF490041EAD3715B0040EA9D
:40148000010062F17F02FD2A1DD8B3F1004F40EBC25008BF20F00100704790F0000F0CF0004C08BF49024CEA502040EA51207F3AC2BFD2F1FF0340EAC250704740F400002C
:4014C0004FF00003013A5DDC12F1190FDCBF00F000407047C2F10002410021FA02F1C2F1200200FA02FC5FEA310040F1000053EA4C0308BF20EADC70704792F0000F00F02C
:40150000004C02BF400010F4000F013AF9D040EA0C0093F0000F01F0004C02BF490011F4000F013BF9D041EA0C018FE70CEAD15392EA0C0F18BF93EA0C0F0AD030F0004C0B
:4015400018BF31F0004CD8D180EA010000F00040704790F0000F17BF90F0004F084691F0000F91F0004F14D092EA0C0F01D142020FD193EA0C0F03D14B0218BF084608D122
:4015800080EA010000F0004040F0FE4040F40000704740F0FE4040F4400070474FF0FF0C1CEAD0521EBF1CEAD15392EA0C0F93EA0C0F69D0A2EB030280EA010C49024FEA30
:4015C000402037D04FF0805343EA111143EA10130CF000408B4238BF5B0042F17D024FF4000C8B4224BF5B1A40EA0C00B3EB510F24BFA3EB510340EA5C00B3EB910F24BFB2
:40160000A3EB910340EA9C00B3EBD10F24BFA3EBD10340EADC001B0118BF5FEA1C1CE0D1FD2A3FF650AF8B4240EBC25008BF20F0010070470CF0004C4CEA50207F32C2BFC0
:40164000D2F1FF0340EAC250704740F400004FF00003013A37E792F0000F00F0004C02BF400010F4000F013AF9D040EA0C0093F0000F01F0004C02BF490011F4000F013B9F
:40168000F9D041EA0C0195E70CEAD15392EA0C0F08D142027FF47DAF93EA0C0F7FF470AF084676E793EA0C0F04D14B023FF44CAF08466EE730F0004C18BF31F0004CCAD195
:4016C00030F000427FF45CAF31F000437FF43CAF5FE700BF014B1868704700BF8481FF1F70B50E4B0E4D0024ED1AAD101E46AC4204D056F8242090470134F8E702F04AFB43
:40170000084D094B0024ED1AAD101E46AC4204D056F8242090470134F8E770BDA03D0000A03D0000A83D0000A03D000010B50023934203D0CC5CC4540133F9E710BD0244D5
:401740000346934202D003F8011BFAE7704700000EB400B54FF402719CB0ADF814106FF00041049107914FF6FF711DABADF81610084953F8042B02900690086802A90193D1
:4017800000F066F8029B00221A701CB05DF804EB03B070478481FF1F2DE9F0478D688146AB420C4692461F4643D38B8913F4906F3DD0266809690222C1EB0608666906EB95
:4017C000460696FBF2F608F101023A44964238BF16465B050FD5314601F00AFF054698B121694246FFF7A2FFA38923F4906343F08003A38113E0324601F04EFF054670B960
:401800004846216901F0B0FE0C23C9F80030A3894FF0FF3043F04003A381BDE8F087256166614544C8EB06062560A6603D46AF4200D23D462A462068514601F087FBA3688B
:4018400000205B1BA36023681D442560BDE8F0872DE9F0439DB003938B8907461C060D4616460CD50B6953B9402101F0C1FE2860286110B90C233B60C7E040236B610023D5
:40188000099320238DF8293030238DF82A3033461C4613F8012B1AB9B4EB06090FD002E0252AF5D1F8E73846294632464B46FFF773FF013000F0A480099B4B4409932378E4
:4018C000002B00F09D8000234FF0FF3204930793059206938DF853301A9304F101094D4E4C4630462178052201F022FB09F10109049B28B1861B0120B04003430493EEE7B7
:40190000D90644BF20228DF853201A0744BF2B228DF8532022782A2A02D0079B21460EE0039A111D12680391002A01DB079204E0524243F002030792049301340AE00C46A2
:4019400022780131303A092A03D80A2000FB0323F5E7079323782E2B19D163782A2B09D1039B02341A1D1B680392002BB8BF4FF0FF330BE0611C00230C4622780131303A31
:40198000092A03D80A2000FB0323F5E70593224E21783046032201F0CBFA30B1861B4020B040049B01340343049321781B480622661C8DF8281001F0BBFA88B1184B33B9EC
:4019C000039B073323F007030833039314E003AB0093384604A92A46124B00F0B9F807E003AB0093384604A92A460E4B00F030FBB0F1FF3F804603D0099B4344099346E7B0
:401A0000AB895B0601D4099801E04FF0FF301DB0BDE8F0833E3C0000443C0000483C0000511B0000991700002DE9F047002B88B014461D46109E1299139F05DA05F100433D
:401A40001D4614462D2300E000230B70149B23F0200ABAF1460F04D0BAF1450F03D1013601E0032300E002238DE8C80006AB039307AB049322462B4600F08EFCBAF1470FE4
:401A8000804602D1119BDB0725D5BAF1460F08EB06090FD198F80030302B09D12046294600220023FFF786FB10B9C6F101063E603B6899442046294600220023FFF77AFB73
:401AC00008B1CDF81C90079B4B4504D25A1C079230221A70F7E7079B4046C8EB0302159B1A6008B0BDE8F08773B50346002903F8022B03DA49421A462D2401E01A462B24A2
:401B0000092944701BDD0DF106040A2691FBF6F506FB1511092D01F13001234604F801192946F2DC05F1300103F8011D0DF107018B420AD213F8011B02F8011BF6E730247F
:401B40001A46214402F8024B5970101A02B070BD2DE9F04F8FB00C4616461F46DDF86090054601F0D9F9D0F800A0504601F0ECFD00230C93D9F800300990073323F0070382
:401B800003F10802D3E9000194F81880C9F80020C4E9120101F0A6FD0128D4E9120117D100220023FFF710FB10B12D2384F84330904B914AB8F1470F8CBF9146994603230E
:401BC0002361236823F0040323604FF0000B86E001F088FD236848B9884A8949B8F1470F8CBF8946914603222261EBE7626828F0200B511C01D1062204E0BBF1470F02D14C
:401C00000AB901226260606843F480618DE80300D4E912230DF12B0002900BA803900CA80590002021600690CDF810802846FFF7FBFEBBF1470F81460B9909D1C81C02DB77
:401C40006368994230DDA8F102085FFA88F802E0B8F1650F12D80139424604F150000B91FFF742FF0C9A83468318012A236102DC2268D2072DD5013323612AE0B8F1660F96
:401C800014D10029636807DD216113B92268D0071CD501330B4418E013B92268D20701D5023312E0012310E04FF067080C9A914205DB23682161D80708D54B1C05E00029C7
:401CC000D4BFC1F10203012313442361A1654FF0000B9DF82B3013B12D2384F843300097284621460DAA334600F040F9013002D14FF0FF3036E123685A0504D42846314663
:401D00004A46236908E1B8F1650F40F2CB80D4E9120100220023FFF74DFA00282AD028463146384A0123B8470130E1D00C9B0B9A9A4207DB2368D80704D423689B0700F1BA
:401D4000F880FDE0284631465246099BB8470130CED04FF000080C9B013B9845EDDA2846314604F11A020123B8470130C0D008F10108F0E70B9B002B28DC28463146214A79
:401D80000123B8470130B3D00B9B23B90C9B13B92368D907D1D5284631465246099BB8470130A5D04FF000080B9B28465B429845314608DA04F11A020123B847013097D086
:401DC00008F10108F0E74A460C9BA5E0A36D0C9A9A42B4BF93469B46BBF1000F02DC4FF000081CE0284631464A465B46B8470130F5D17DE74F3C0000533C0000573C000096
:401E00005B3C00005F3C00002846314604F11A020123B84701303FF46BAF08F10108A36D2BEAEB729A1A9045EEDB09EB03080B9A0C9B9A420FDB2368DA070CD40C9B0B9A5A
:401E40009944C8EB09099B1A9945A8BF9946B9F1000F08DC0FE0284631465246099BB8470130EBD144E72846314642464B46B84701303FF43DAF4FF000080AE028463146C0
:401E800004F11A020123B84701303FF431AF08F101080B9B0C9A29EAE971D31A5B1A9845ECDB4AE70C9A012A01DCDB0739D5284631464A460123B84701303FF419AF2846E8
:401EC00031465246099BB84701303FF411AFD4E9120100220023FFF76DF910B14FF0000811E00C9B2846314609F10102013B1CE02846314604F11A020123B84701303FF464
:401F0000F7AE08F101080C9B013B9845F0DB2846314604F150025B46B84701307FF40DAFE6E6284631464A460123B8470130EED1DEE64FF00008E2680D9BD31A984505DB48
:401F4000E0680D9B9842B8BF18460BE02846314604F119020123B84701303FF4C9AE08F10108E8E70FB0BDE8F08F00BF2DE9F84315461F468A680B6906469A42A8BF134612
:401F80002B6091F843200C46DDF820800AB101332B602368990602D52B6802332B60236813F006091DD094F843302268003318BF012392061FD5E118302081F843005A1CCD
:401FC00094F845102244023382F8431013E03046394604F119020123C047013007D009F10109E2682B68D31A9945F0DBDBE74FF0FF30BDE8F8833046394604F14302C04770
:402000000130F4D023682A6803F00603E168042B08BFC2EB01052369A2680CBF25EAE57500259A42C4BFC3EB0203ED184FF00009A9450ADA3046394604F11A020123C0474F
:402040000130D4D009F10109F2E70020BDE8F8832DE9FF470E7E80466E2E0C4691469A460C9D01F1430000F0A58011D8632E22D009D8002E00F0AF80582E40F0BF8081F820
:4020800045607B4A4FE0642E1ED0692E1CD0B5E0732E00F0A48009D86F2E2BD0702E40F0AD800B6843F020030B6038E0752E21D0782E34D0A2E02B6801F142071A1D1B6832
:4020C0002A6081F842309DE022682B6812F0800F03D01A1D2A601D6805E05106F9D51A1D2A60B3F90050002D39DA2D236D4284F8433034E022682B6812F0800F03D01A1D66
:402100002A601D6804E05206F9D51A1D2A601D88237E574A6F2B14BF0A2308231BE07823544A84F845302368296813F0800F01F104062E6001D00D6802E05F06FBD50D88CA
:40214000DE0744BF43F0200323601DB9236823F0200323601023002184F8431001E0444A0A236668002EA66003DB216821F00401216005B96EB104F14201B5FBF3F603FB19
:402180001655555D0F4601F801593546002EF4D100E00746082B0AD12368DD0707D5626823699A4203DC302307F8013C013FC01B20612CE009682B6811F0800F626904D0EB
:4021C000191D29601B681A6005E04906F8D5191D29601B681A8000232361074617E02B681A1D2A601F68384601F0AEFA63682061984288BF23612369636005E004F1420706
:4022000084F8426001232361002384F84330CDF800A04046214603AA4B46FFF7A7FE013002D14FF0FF301FE0404649463A462369D0470130F5D023689B0705D4E068039B10
:402240009842B8BF18460FE00025E268039BD31A9D42F3DA4046494604F119020123D0470130DED00135F0E704B0BDE8F08700BF613C0000723C00002DE9F74F03690C69B7
:402280008046A342C0F28380013CA20001F1140700F114059146009257F824602A44019255F824200136B2FBF6F6B944002E3BD04FF0000E3A462846F34652F804CB0368FC
:4022C0001FFA8CFA4FEA1C4C0AFB06EA0CFB06FC0CEB1A4C1FFA8AFACAEB0B0B4FEA1C4E1FFA83FA1FFA8CFCDA44CCEB134C0CEB2A4C1FFA8AFA4AEA0C4A4A454FEA2C4BFA
:4023000040F804ABD9D9009AAB586BB9019A131FAB421A4602D8C8F8104005E01268043B002AF8D1013CF3E7404601F040F800282BDB01362B46002057F804CB1A681FFA39
:402340008CF1411A1FFA82FA4FEA1C4C5144CCEB124202EB214289B210144F4541EA024243F8042BE8D955F8242005EB840362B9043BAB421A4602D8C8F8104005E01268DA
:40238000043B002AF8D1013CF3E7304600E0002003B0BDE8F08F00002DE9F04F456A9BB08246279CCDE9042345B9102000F0B8FDCAF82400456085600560C560DAF82430DD
:4023C000196861B15B6801224B6002FA03F350468B6000F00BFEDAF8243000221A600598002805DA012320F000412360059101E000232360059F9C4A27F000431B0D1B05A6
:4024000093421DD1269A42F20F731360049B43B9964B974AC7F3130000280CBF1046184600E09248289F002F00F07185C37813B100F1080300E0C31C289F3B6000F067BD59
:40244000DDE904450022204629460023FEF7B2FE804658B1269F01233B60289F002F00F0538584483860013800F051BD19AB009318AB0193504622462B4601F014F8C7F30E
:402480000A5683465EB1C5F3130343F07F51204641F44011A6F2FF36CDF854801CE0199B189E1E446FF482639E4209DB04991F3306F212409B1B21FA00F09F40384304E0B5
:4024C0006D48049A801B02FA00F0FEF7A7FD0127A1F1F871013E15970022684BFEF760FC5BA3D3E9002301F041F95BA3D3E90023FEF758FC044630460D46FEF79FFD58A368
:40250000D3E9002301F032F902460B4620462946FEF748FC04460D4601F03AFB29468146002220460023FEF74FFE58B14846FEF785FD02460B4620462946FEF73BFE08B9A8
:4025400009F1FF39B9F1160F0DD84D4B03EBC903D3E90001DDE90423FEF754FE30B109F1FF39002700E00127149700E01490189B9E1B013E099604D577420897002709977F
:4025800001E000270897B9F1000F07DB099FCDF844904F44099700270E9708E0089FC9EB07070897C9F100070E9700271197249F092F29D8052FC4BF043F2497249FC8BF79
:4025C0000025A7F10203D8BF0125032B21D8DFE803F0060F0204012702E0012709E000270F97259F002F1EDD0B9707973B461FE000270F97259F4F440B9701373B460797AD
:40260000012BB8BF012313E00125002724970F9501E001270F974FF0FF370B97079700271223259704E001270B9707973B462597DAF8244000226260042101F114029A420C
:4026400020D86268490001326260F6E7AFF3008061436F63A787D23FB3C8608B288AC63FFB799F501344D33F0000F07F8C3C0000833C0000603C0000EEFBFFFF0000F83F0D
:40268000983C00005046616800F07BFCDAF824302060079F1B680E2F0A9300F26B81002D00F06881B9F1000FDDE90401CDE9120131DD814A09F00F0302EBC3034FEA291499
:4026C000D3E90001CDE90C01E0060CD5DDE912017A4B04F00F04D3E9082301F071F90327CDE9040100E00227744D6CB1E10708D5DDE90C01D5E9002301F038F8CDE90C0183
:40270000013764100835F0E7DDE90401DDE90C2301F056F91BE0C9F10004DCB1664B04F00F0203EBC203DDE91201D3E9002301F01DF8624D241102274CB1E20704D5D5E9E2
:402740000023013701F012F864100835F4E7CDE9040100E002271499E9B1DDE90445002220462946564BFEF72FFDC8B1079AE2B10B9B002B40F3FA8009F1FF301090294641
:40278000204600224F4B00F0F1FFCDE904010B9901370C910DE0079ACDF840900C9208E0079BCDF840900C9303E00798CDF840900C903846FEF742FCDDE9042300F0D6FF4E
:4027C0000022414BFEF7EEFA0C9F0446A1F15075CFB900223D4BDDE90401FEF7E1FA22462B4606460F46FEF70DFD002840F05382224605F1004330463946FEF7E5FC0028FB
:4028000040F03F82B2E00C9F2B4B7A1E0F9F03EBC203002F5ED0D3E9002300202C4901F0CFF822462B46FEF7BBFADDE90467DDF8288004460D463946304601F0A9F902908A
:40284000FEF7FCFB02460B4630463946FEF7A8FADDF808C022460CF1300308F8013B2B4606460F46FEF7B0FC002840F03B8332463B4600201249FEF793FA22462B46FEF749
:40288000A3FC002840F0D5800A980C99C0EB08038B426BDA2046294600220A4B00F066FF002204460D4630463946064B00F05EFF06460F46BFE700BF983C0000603D000053
:4028C0000000F03F0000244000001C40000014400000E03F2246D3E900012B4600F046FFDDE90467DDF828800C9ACDE916010A9C90443946304601F04BF90546FEF79EFB0D
:4029000002460B4630463946FEF74AFA303504F8015B444506460F4621D10022874BDDE91601FEF73FFA02460B4630463946FEF769FC00287DD1DDE9162300207F49FEF7BE
:402940002FFA02460B4630463946FEF73DFC68B1A04618F8013C013C302BF9D0C2E20022774B00F003FF06460F46C2E7DDE91201CDE90401199B002B7CDBB9F10E0F79DC1B
:40298000704B259F03EBC903002FD3E9004514DA079F002F11DC40F07681204629460022694B00F0E3FEDDE90423FEF721FC079D2C46002840F0698171E1DDF82880DDE96F
:4029C000046722462B463046394600F0F9FF01F0DFF80490FEF732FB22462B4600F0C6FE02460B4630463946FEF7DAF9049F024607F130060A9F08F8016BC7EB0806079FC1
:402A00000B46BE4229D1FEF7CDF922462B4606460F46FEF7F7FB70B93046394622462B46FEF7C8FB002800F05F82049FFB0702D45AE2DDF840904346984618F8012C013B4B
:402A4000392A06D10A9F9F42F6D1302209F101093A701A7801321A7046E20022384B00F085FE0022002306460F46FEF7A3FB0028A7D039E20F9F002F30D0249F012F0ADC53
:402A8000159F17B103F2334302E0189BC3F136030E9D089E16E0079F7D1E0E9FAF4201DB7D1B06E00E9F0E95EB1B119F00251F441197079F002F03DA08980023C61B01E0C0
:402AC000089E079B089F50461F440897099F01211F44099700F028FB044602E00E9D089E0F9C6EB1099F002F0ADD3B46089FB342A8BF3346FF1A0897099FF61AFF1A099744
:402B00000E9F002F28DD0F9F07B3002D10DD21462A46504600F0AAFB04465A462146504600F00BFB59460746504600F05FFABB460E9F7A1B10D0504659460AE00000E03F27
:402B400000002440983C0000000014400E9A5046594600F08BFB83465046012100F0E4FA119F0546002F05DD294650463A4600F07DFB0546249F012F12DC049880B905998F
:402B8000C1F3130373B921F000473F0D3F0557B1089F01370897099F01370997012702E0002700E0049F119840B12B6905EB8303186900F06CFAC0F1200000E00120099B8C
:402BC000034413F01F030FD0C3F12002042A09DD0899099AC3F11C0319441A4408911E44099209E008D01346089809991C331844194408901E440991089A002A04DD5946F4
:402C0000504600F081FB8346099B002B05DD294650461A4600F078FB05461498E0B15846294600F0C4FB002816DA594650460A22002300F0F2F90F9909F1FF39834649B1F8
:402C400021460A225046002300F0E7F90B9A0446079201E00B9B07930798002829DC2499022926DD88B929460522079B504600F0D4F905462946584600F099FB00280EDC1E
:402C800003E00C9D00E000252C46259FDDF828806FEA07090AE00C9DDDF840902C460A9F312307F101083B7009F101092746002407E10F98002800F0BB80002E05DD214626
:402CC0005046324600F020FB04469FB16168504600F057F922690646023204F10C0192000C30FEF723FD50463146012200F00CFB074600E027460A9E29465846FFF7BCFA70
:402D0000214600F1300C80465846CDF808C000F04EFB3A4608902946504600F065FBC3680246DDF808C04BB911465846039200F03EFB039A0346DDF808C000E00123504684
:402D400011460393CDF808C000F050F9039BDDF808C063B9249951B9049800F0010232B9BCF1390F35D0089B002B24DC25E00898002802DA002B08DC1FE023D1249909BB14
:402D8000049800F00102EAB9F4E7594601225046CDF808C000F0B8FA2946834600F007FB0028DDF808C003DC07D11CF0010F04D0BCF1390F0DD008F1310C06F1010886F863
:402DC00000C07EE0002B06F1010809DDBCF1390F03D13923337001365BE00CF1010368E00A99079AC1EB08034646934206F801CC3CD059460A220023504600F00EF9BC4275
:402E00008346214650464FF00A024FF0000304D100F003F9044607466EE700F0FEF8394604460A225046002300F0F7F8074663E70F9E58462946FFF71FFA0A9F00F1300CE9
:402E400007F806C0079F0136BE4207DB0A9E012FACBFF61901362746002407E0594650460A22002300F0D9F88346E2E7594601225046CDF808C000F047FA2946834600F0B8
:402E800096FA0028DDF808C003DC14D11CF0010F11D016F8013CB046392B06F1FF3607D10A98B042F5D1312309F10109037008E00133337005E0B04618F8013C013E302BAD
:402EC000F9D05046294600F091F86FB12CB1BC4203D05046214600F089F85046394600F085F801E0DDF840905046594600F07EF80023269F88F8003009F101033B60289FB4
:402F000027B1C7F8008001E0024800E00A981BB0BDE8F08F5F3C0000004870478881FF1F024B0146186800F063BB00BF8481FF1F10B5C9B202449042034605D01C780130DE
:402F40008C42F8D1184610BD002010BD814270B501D300230EE08C18A042FAD28518134613F1FF3305D351426618F65C2944CE54F6E770BD934203D0CC5CC4540133F9E787
:402F800070BD70B5456A04460E463DB91020FFF7C7FF6062456085600560C560656AEB6843B1636ADA6852F8260078B1016842F8261017E020460421212200F0C6FA636AE1
:402FC000E860DB68002BECD1002070BD012101FA06F56A1D2046920000F0B7FA0028F3D04660856000220261C26070BD70B5446A06460D463CB91020FFF792FF70624460FB
:4030000084600460C4603DB1736A6A68DB6853F82210296043F8225070BD2DE9F0410C461E460D69074614310023086801331FFA80FC000C02FB0C6C504300EB1C401FFA8F
:403040008CFC060CAB420CEB004041F8040BECDBD6B1A3689D4212DB616838460131FFF790FF226904F10C010232804692000C30FEF75CFB21463846FFF7B8FF444604EB7B
:40308000850301355E6125612046BDE8F081030C1B0413B90004102300E0002310F07F4F04BF0002083310F0704F04BF0001043310F0404F04BF80000233002803DB420086
:4030C00003D5581C70471846704720207047036813F007020BD0D90722D49A0703D55B080360012070479B0803600220704799B209B91B0C102213F0FF0F04BF1B0A08320A
:40310000190704BF1B090432990704BF9B080232D90702D45B0805D00132036010467047002070472020704710B50C460121FFF728FF01224461026110BD2DE9F04F1646BA
:4031400033690A6985B09A420D4601DA35460E46D5F810803769AB68696808EB07049C42C8BF0131FFF70DFF00F1140303EB840101911A46DDF804A0524503D2002142F80D
:40318000041BF7E705F1140106F1140201EB880802EB8707CDF808800397039E1546B24256D2B5F800C00432BCF1000F25D00F461D46002657F8049BD5F800801FFA89FBFA
:4031C0001FFA88FA0CFB0BAA4FEA19494FEA18480CFB0988B24408EB1A481FFA8AFA4AEA084A4FEA1846DDF80880AB46B8454BF804AB01D95D46DDE76E6032F8028CB8F1FA
:40320000000F23D01E680F461D464FF00009B7F800A0B5F802C0B6B208FB0ACCE14446EA0946AC464CF8046B57F8046BB5F804A0360C08FB06A6DDF808A006EB1946574555
:403240004FEA164901D26546E1E76E600433A4E7019B002C03DC046105B0BDE8F08F53F8042D002AF7D1013CF3E7000012F003032DE9F04105460E46174607D0214A013BAD
:4032800052F823200023FFF7C8FE0646BF1035D06C6A3CB91020FFF743FE6862446084600460C460D5F82480D8F808407CB9284640F27121FFF738FF0023C8F80800044624
:4032C000036004E07F1019D0206870B10446FB07F8D5314622462846FFF72FFF314680462846FFF783FE4646ECE7284621462246FFF723FF002320600360E7E73046BDE817
:40330000F08100BF883D00002DE9F0470C4623694FEA621A0AEB03094968A3688046154609F101079F4202DD01315B00FAE74046FFF727FE0023064600F11402534504DA1D
:40334000002142F823100133F8E720692AEAEA7104F1140315F01F0C02EB810103EB800E16D0CCF1200A002518680A4600FA0CF0054342F8045B53F8045B734525FA0AF574
:4033800001D21146F0E74D6045B109F1020705E053F8042B734541F8042BF9D3013F404637612146FFF722FE3046BDE8F08702690B6910B5D21A13D19C00143001F1140252
:4033C0000319224453F8044D52F8041D8C4203D008D24FF0FF3010BD9842F3D3002010BD104610BD012010BD2DE9F04706460C46084611461546FFF7DAFF071E08D13046C2
:403400003946FFF7BEFD012303614761BDE8F08701DB002703E0234601272C461D4661683046FFF7AEFD22692B69143405F1140606EB830AC76004EB820C00F11403002122
:4034400054F8047B56F8049B1FFA87F81FFA89F541444FEA1949C5EB0108C9EB174707EB28471FFA88F83914B24548EA0747254643F8047BE4D865450DD255F8044BA6B25E
:403480000E44240C04EB2644B6B2211446EA044443F8044BEFE753F8041D09B9013AFAE70261BDE8F0872DE9F74301211D46DDF82890DDF82C801446FFF763FDC5F30A5747
:4034C0000646C5F313030FB143F480130193D4B102A840F8084D6846FFF7F9FD009B48B1019AC0F1200102FA01F1C2400B437361019200E07361019B002B0CBF0124022407
:40350000B361346107E001A8FFF7E1FD019B01247361346120303FB1A7F233470744C9F80070C0F135000AE0A0F2324006EB8403C9F800001869FFF7AAFDC0EB4410C8F89B
:403540000000304603B0BDE8F08338B502FB01F4214600F04DF8054618B100212246FEF7EEF8284638BD000030B500293CD051F8042C0B1F1D49002AB8BF9B180A680C4679
:4035800012B95A600B6030BD93420DD219685818904203D15A581144426819605A60236030BD994203D80A4651680029F9D1146815199D420AD11B682344D018884213606A
:4035C00012D10868034413604B680CE002D90C23036030BD18681C188C4203D10C684968204418605960536030BD00BFF081FF1F70B5CD1C25F0030508350C2D38BF0C25FE
:40360000002D06463FDB8D423DD3214B1C6818462146A1B10B685B1B0ED40B2B03D90B60CC18CD501FE08C4202D1626802601AE04B6863600C4616E00C464968E9E7154C10
:4036400023681BB9304600F06FF820602946304600F06AF8431C014615D0C41C24F0030484420AD1256004F10B00231D20F00700C31A0BD05A42E25070BD3046611A00F0D0
:4036800053F80130EED10C233360002070BD00BFF081FF1FEC81FF1FF8B5064614460D4621B91146BDE8F840FFF7A2BF1AB9FFF75BFF2046F8BD00F04FF8A0420ED230462F
:4036C0002146FFF795FF074650B129462246FEF72DF830462946FFF747FF01E02846F8BD3846F8BD31F0004310B500D178B10C4AA3F5801494420CD9B3F5801F0BD3094A6A
:4037000093420AD1D0F1010038BF002010BD022010BD042010BD032010BD002010BD00BFFFFFDF7F0000F07F38B5064C0023054608462360FCF7D8FC431C02D1236803B136
:403740002B6038BDFC81FF1F034613F8012B002AFBD1181A0138704751F8040C002802DA04390B58184404387047000070B54FF0FF0C4CF4E06C1CEA11541DBF1CEA13559A
:4037800094EA0C0F95EA0C0F00F0DEF82C4481EA030621EA4C5123EA4C5350EA013518BF52EA033541F4801143F4801338D0A0FB02CE4FF00005E1FB02E506F00042E0FB00
:4037C00003E54FF00006E1FB03569CF0000F18BF4EF0010EA4F1FF04B6F5007F64F5407404D25FEA4E0E6D4146EB060642EAC62141EA55514FEAC52040EA5E504FEACE2E64
:40380000B4F1FD0C88BFBCF5E06F1ED8BEF1004F08BF5FEA500E50F1000041EB045170BD06F0004646EA010140EA020081EA0301B4EB5C04C2BFD4EB0C0541EA045170BD3C
:4038400041F480114FF0000E013C00F3AB8014F1360FDEBF002001F0004170BDC4F10004203C35DA0C341BDC04F11404C4F1200500FA05F320FA04F001FA05F240EA020014
:4038800001F0004221F0004110EBD37021FA04F642EB06015EEA430E08BF20EAD37070BDC4F10C04C4F1200500FA04F320FA05F001FA04F240EA020001F0004110EBD370F6
:4038C00041F100015EEA430E08BF20EAD37070BDC4F1200500FA05F24EEA020E20FA04F301FA05F243EA020321FA04F001F0004121FA04F220EA020000EBD3705EEA430E4E
:4039000008BF20EAD37070BD94F0000F0FD101F00046400041EB010111F4801F08BF013CF7D041EA060195F0000F18BF704703F00046520043EB030313F4801F08BF013D01
:40394000F7D043EA0603704794EA0C0F0CEA135518BF95EA0C0F0CD050EA410618BF52EA4306D1D181EA030101F000414FF0000070BD50EA410606BF1046194652EA430643
:4039800019D094EA0C0F02D150EA013613D195EA0C0F05D152EA03361CBF104619460AD181EA030101F0004141F0FE4141F470014FF0000070BD41F0FE4141F4780170BD9F
:4039C00070B54FF0FF0C4CF4E06C1CEA11541DBF1CEA135594EA0C0F95EA0C0F00F0A7F8A4EB050481EA030E52EA03354FEA013100F088804FEA03334FF0805545EA131392
:403A000043EA12634FEA022245EA111545EA10654FEA00260EF000419D4208BF964244F1FD0404F5407402D25B084FEA3202B61A65EB03055B084FEA32024FF480104FF4DD
:403A4000002CB6EB020E75EB030E22BFB61A754640EA0C005B084FEA3202B6EB020E75EB030E22BFB61A754640EA5C005B084FEA3202B6EB020E75EB030E22BFB61A754614
:403A800040EA9C005B084FEA3202B6EB020E75EB030E22BFB61A754640EADC0055EA060E18D04FEA051545EA16754FEA06164FEAC30343EA52734FEAC2025FEA1C1CC0D13F
:403AC00011F4801F0BD141EA00014FF000004FF0004CB6E711F4801F04BF01430020B4F1FD0C88BFBCF5E06F3FF6AFAEB5EB030C04BFB6EB020C5FEA500C50F1000041EB2E
:403B0000045170BD0EF0004E4EEA113114EB5C04C2BFD4EB0C0541EA045170BD41F480114FF0000E013C90E645EA060E8DE60CEA135594EA0C0F08BF95EA0C0F3FF43BAFEF
:403B400094EA0C0F0AD150EA01347FF434AF95EA0C0F7FF425AF104619462CE795EA0C0F06D152EA03353FF4FDAE1046194622E750EA410618BF52EA43067FF4C5AE50EAE5
:403B800041047FF40DAF52EA43057FF4EBAE12E74FEA410212F5001215D211D56FF47873B3EB625212D94FEAC12343F0004343EA505311F0004F23FA02F018BF4042704749
:403BC0004FF00000704750EA013005D111F0004008BF6FF0004070474FF00000704700BF000000000000000025392E36660000000D0A0000035B00402443004040000000B7
:403C0000005100403000405100403000F0510040100000000140001000140140000800400140000A004C014000020050014020006052004018030048060000004300232DCA
:403C4000302B2000686C4C0065666745464700494E4600696E66004E414E006E616E0030003031323334353637383941424344454600303132333435363738396162636408
:403C8000656600496E66696E697479004E614E00504F534958002E00000000000000F03F000000000000244000000000000059400000000000408F40000000000088C3406B
:403CC00000000000006AF8400000000080842E4100000000D01263410000000084D797410000000065CDCD41000000205FA00242000000E876483742000000A2941A6D4235
:403D0000000040E59C30A2420000901EC4BCD64200003426F56B0C430080E03779C3414300A0D8855734764300C84E676DC1AB43003D9160E458E143408CB5781DAF154482
:403D400050EFE2D6E41A4B4492D54D06CFF08044F64AE1C7022DB544B49DD9794378EA440080E03779C34143176E05B5B5B89346F5F93FE9034F384D321D30F94877825A0A
:403D80003CBF737FDD4F157505000000190000007D000000F8B500BFF8BC08BC9E4670474D00000065010000F8B500BFF8BC08BC9E46704729000000C83D00000881FF1F3F
:403DC000B800000040000000000000000082FF1F0000E02EC05D00001800000000366E0101FF00000000000000000000000000000000000000000000000000000000000043
:403E0000000000003C3C000000000000000000000000000000000000000000000000000000000000000000000000000000000000000000000000000000000000000000000A
:403E4000000000002481FF1F963C0000433C0000433C0000433C0000433C0000433C0000433C0000433C0000433C0000433C0000FFFFFFFFFFFFFFFFFFFFFFFFFFFF000044
:403E80000000000000000000000000000000000000000000000000000000000000000000000000000000000000000000000000000000000000000000000000000000000002
:403EC00000000000000000000000000000000000000000000000000000000000000000000000000000000000000000000000000000000000000000000000000000000000C2
:403F00000000000000000000000000000000000000000000000000000000000000000000000000000000000000000000000000000000000000000000000000000000000081
:403F40000000000000000000000000000000000000000000000000000000000000000000000000000000000000000000000000000000000000000000000000000000000041
:020000040003F7
:0200000480007A
:400000000365004001050140010B0140040E0140020F0140761801403E1901404B1A0140491B01400242014001430140044401400346014003480140014C0140074D014061
:400040000250014089388A728B0FE002E002B980BF40D904DF0126808A800014038004090610078008800A030C2C0E110F5511731304141C15731622170C1B082040243017
:400080002503260C27442810292A2B44314032603330341F350F36803780380839083B203E403F454002470449FF4A074BFF4C404D204EF04F055008580459045A045C1162
:4000C0005D015F01604061A86240632081018220830E880189448A168B318C018E0E9203941C95E7960399E79A1C9D80A522A620A751AA08B01AB107B20FB360B420B580A1
:40010000B718BA0ABE10BF40C042C103C206C401C5C0C6E0C80AC9FFCAFFCBFFCC62CDA0CEF0CF41D00CD418D804D904DA04DB04DC11DD11DF01E640E702E910EA30EB1035
:40014000ED10EE10EF1203850514068007010A500B080E101020120416441704180419011A101B081D541E201F04200121112212231024402680272428202F283008324061
:40018000331035013610370539023B103C083E403F85400141144302472048044B015020564457405A02600462808540C0FBC22EC476CA62CCEECED5D02FD204D601D80C58
:4001C000E408001C013C026303C204730508060C087F09800C030D44101F11C01260151C162317E11BE31C0C1F0420082118240425FF280229E72B182C012D10301031C0A8
:40020000322C340F35383640371F38803A283B883E0156025713580459045B045C115D105F0198019B01B401B701BE10C035C104C5EEC6CBC80FC9FFCAFFCBFFCEF0CF4443
:40024000D00CD401D804D904DA04DB04DC10DD11DF01E6C0EA40EB0200260101020608820A200F08108011401318180419151B801E08202221042201230425802880295057
:400280002A0431843212342039413A083B1047054F895680572059015C405D105E085F0168086A806B107084714072087308800681048302851087208CA48D409040922068
:4002C00093109508968297049B059C209E809F10A202A340A408A7A2C00FC24DC40FCA0FCC2FCE0FD0C0D210D6F18701E0409F017C208820DE01E00145088508D0012701AC
:400300009F01C8208502128075028E809902C408DE04E20210021C02808000004000000080004080800080000000000000000000000030002500180100000000000000004C
:40034000000000000000000000000000000000000000000000000000000000000000000000000000000000000000000000000000000000000000000000000000000000007D
:40038000000000000000000000000000000000000000000000000000000000000000000000000000000000000000000000000000000000000000000000000000000000003D
:4003C00000000000000000000000000000000000000000000000000000000000000000000000000000000000000000000000000000000000000000000000000000000000FD
:4004000000000000000000000000000000000000000000000000000000000000000000000000000000000000000000000000000000000000000000000000000000000000BC
:0200000490006A
:0400000000004005B7
:0200000490105A
:04000000BC90ACAF55
:0200000490303A
:020000008CB6BC
:0200000490402A
:4000000000000000000000000000000000000000000000000000000000000000000000000000000000000000000000000000000000000000000000000000000000000000C0
:400040000000000000000000000000000000000000000000000000000000000000000000000000000000000000000000000000000000000000000000000000000000000080
:400080000000000000000000000000000000000000000000000000000000000000000000000000000000000000000000000000000000000000000000000000000000000040
:4000C0000000000000000000000000000000000000000000000000000000000000000000000000000000000000000000000000000000000000000000000000000000000000
:0200000490501A
:0C00000000012E16106900012E2E9D1F1D
:00000001FF